:040000008DEF00F090
:100008003882FACF01F0FBCF02F0E9CF03F0EACF54
:1000180004F0E1CF05F0E2CF06F0D9CF07F0DACF50
:1000280008F0F3CF09F0F4CF0AF0F6CF0BF0F7CFD2
:100038000CF0F8CF0DF0F5CF0EF0A1B8A1989EBC4A
:100048009E9C9EA61BD021EC01F00009D8B49E9678
:1000580021EC01F00009D8B411D0C7A803D09E96AE
:10006800C68839D0C9CF0FF0C7AA03D00FC037F060
:1000780003D0C7B437C0C9FF9E96C6889EAA2BD0A6
:100088003650010D2D0EF324D96E000EF420DA6ED1
:10009800AECFDFFF362A070E36641CD0000E366E50
:1000A800000E106E070E106401D014D01050010D10
:1000B8002D0EF324D96E000EF420DA6E1050010DC7
:1000C800250EF324E16E000EF420E26EDFCFE7FF89
:1000D800102AE8D79E9A0EC0F5FF0DC0F8FF0CC095
:1000E800F7FF0BC0F6FF0AC0F4FF09C0F3FF08C012
:1000F800DAFF07C0D9FF06C0E2FF05C0E1FF04C070
:10010800EAFF03C0E9FF02C0FBFF01C0FAFF389213
:10011800110042EF01F014D0040EB06EE10EAF6E84
:100128001200020EB06E700EAF6E1200000EB06EAE
:10013800CF0EAF6E1200000EB06E670EAF6E1200DB
:1001480011C015F012C016F013C017F014C018F043
:100158001850000AD8A4120023D01650250AD8B483
:1001680007D06E0AD8B409D0AA0AD8A412000AD0B7
:100178001550800AD8A41200CFD71550000AD8A469
:100188001200CFD71550000AD8A41200CFD71650A6
:10019800C20AD8A412001550000AD8A41200CBD75E
:1001A8001750000AD8B4D9D7010AD8A41200EFD73B
:1001B80033EC01F0000E116E4B0E126E000E136E32
:1001C800000E146E8FEC00F0010EF7EC00F0080E34
:1001D8004FEC01F0000E196E000E1A6E000E1B6E29
:1001E800000E1C6EFFD7116E500E936E000EC76E78
:1001F8009F869D861150D8A407D0280EC66E080E7B
:10020800C56E1D0EC86E1200360EC66E810EC56E06
:10021800100EC86E1200C6A0C6B205D0C6A4C6A6E7
:1002280002D0000E1200C6A0C6A205D0C6B4C6B63B
:1002380002D0010E1200020E1200C6A0C6B205D0EE
:10024800C6A4C6A602D0000E1200C6A0C6A205D03B
:10025800C6B4C6B602D0010E1200020E1200900EED
:10026800AB6E240EAC6E938A939E080EB86E040E85
:10027800B06EE10EAF6E9F8A9D8A120000EE1DF0EF
:100288001B0EEE6AE806FDE138903892000EF86E13
:100298000001DCEF00F0116E0FEC01F00009D8B49A
:0A02A800120011501124C86E12005C
:020000040020DA
:08000000FFFFFFFFFFFFFFFF00
:020000040030CA
:0E0000000032011EFF8081FF03C003E00340B9
:00000001FF
